{
  "contractName": "Election",
  "abi": [
    {
      "constant": true,
      "inputs": [
        {
          "name": "",
          "type": "address"
        }
      ],
      "name": "votersParty",
      "outputs": [
        {
          "name": "",
          "type": "uint256"
        }
      ],
      "payable": false,
      "stateMutability": "view",
      "type": "function"
    },
    {
      "constant": true,
      "inputs": [],
      "name": "candidatesCount",
      "outputs": [
        {
          "name": "",
          "type": "uint256"
        }
      ],
      "payable": false,
      "stateMutability": "view",
      "type": "function"
    },
    {
      "constant": true,
      "inputs": [
        {
          "name": "",
          "type": "uint256"
        }
      ],
      "name": "candidates",
      "outputs": [
        {
          "name": "id",
          "type": "uint256"
        },
        {
          "name": "partyId",
          "type": "uint256"
        },
        {
          "name": "name",
          "type": "string"
        },
        {
          "name": "voteCount",
          "type": "uint256"
        }
      ],
      "payable": false,
      "stateMutability": "view",
      "type": "function"
    },
    {
      "constant": true,
      "inputs": [
        {
          "name": "",
          "type": "uint256"
        }
      ],
      "name": "parties",
      "outputs": [
        {
          "name": "id",
          "type": "uint256"
        },
        {
          "name": "name",
          "type": "string"
        },
        {
          "name": "voteCount",
          "type": "uint256"
        }
      ],
      "payable": false,
      "stateMutability": "view",
      "type": "function"
    },
    {
      "constant": true,
      "inputs": [
        {
          "name": "",
          "type": "address"
        }
      ],
      "name": "votersCandidatesCount",
      "outputs": [
        {
          "name": "",
          "type": "uint256"
        }
      ],
      "payable": false,
      "stateMutability": "view",
      "type": "function"
    },
    {
      "constant": true,
      "inputs": [],
      "name": "locationCount",
      "outputs": [
        {
          "name": "",
          "type": "uint256"
        }
      ],
      "payable": false,
      "stateMutability": "view",
      "type": "function"
    },
    {
      "constant": true,
      "inputs": [],
      "name": "partyCount",
      "outputs": [
        {
          "name": "",
          "type": "uint256"
        }
      ],
      "payable": false,
      "stateMutability": "view",
      "type": "function"
    },
    {
      "constant": true,
      "inputs": [
        {
          "name": "",
          "type": "address"
        }
      ],
      "name": "voted",
      "outputs": [
        {
          "name": "",
          "type": "bool"
        }
      ],
      "payable": false,
      "stateMutability": "view",
      "type": "function"
    },
    {
      "constant": true,
      "inputs": [
        {
          "name": "",
          "type": "uint256"
        }
      ],
      "name": "locations",
      "outputs": [
        {
          "name": "id",
          "type": "uint256"
        },
        {
          "name": "validAddressAmount",
          "type": "uint256"
        }
      ],
      "payable": false,
      "stateMutability": "view",
      "type": "function"
    },
    {
      "constant": true,
      "inputs": [
        {
          "name": "",
          "type": "address"
        },
        {
          "name": "",
          "type": "uint256"
        }
      ],
      "name": "votersCandidates",
      "outputs": [
        {
          "name": "",
          "type": "uint256"
        }
      ],
      "payable": false,
      "stateMutability": "view",
      "type": "function"
    },
    {
      "inputs": [],
      "payable": false,
      "stateMutability": "nonpayable",
      "type": "constructor"
    },
    {
      "anonymous": false,
      "inputs": [
        {
          "indexed": true,
          "name": "_candidateId",
          "type": "uint256"
        }
      ],
      "name": "votedEvent",
      "type": "event"
    },
    {
      "constant": false,
      "inputs": [
        {
          "name": "_name",
          "type": "string"
        }
      ],
      "name": "addParty",
      "outputs": [],
      "payable": false,
      "stateMutability": "nonpayable",
      "type": "function"
    },
    {
      "constant": false,
      "inputs": [
        {
          "name": "_validAddresses",
          "type": "address[]"
        }
      ],
      "name": "addLocation",
      "outputs": [],
      "payable": false,
      "stateMutability": "nonpayable",
      "type": "function"
    },
    {
      "constant": false,
      "inputs": [
        {
          "name": "_partyId",
          "type": "uint256"
        },
        {
          "name": "_candidateIds",
          "type": "uint256[]"
        },
        {
          "name": "_locationId",
          "type": "uint256"
        }
      ],
      "name": "vote",
      "outputs": [],
      "payable": false,
      "stateMutability": "nonpayable",
      "type": "function"
    }
  ],
  "bytecode": "0x60806040523480156200001157600080fd5b5060606002604051908082528060200260200182016040528015620000455781602001602082028038833980820191505090505b509050730260c4873d8c3d9abe737450516d266da391e2f58160008151811015156200006d57fe5b9060200190602002019073ffffffffffffffffffffffffffffffffffffffff16908173ffffffffffffffffffffffffffffffffffffffff168152505073a00e6969c7b59122b76c0ffcb8c87a1809feff3f816001815181101515620000ce57fe5b9060200190602002019073ffffffffffffffffffffffffffffffffffffffff16908173ffffffffffffffffffffffffffffffffffffffff16815250506200012481620004f1640100000000026401000000009004565b620001736040805190810160405280600481526020017f53502e410000000000000000000000000000000000000000000000000000000081525062000570640100000000026401000000009004565b620001c26040805190810160405280600481526020017f4e2d56410000000000000000000000000000000000000000000000000000000081525062000570640100000000026401000000009004565b620002116040805190810160405280600481526020017f434426560000000000000000000000000000000000000000000000000000000081525062000570640100000000026401000000009004565b620002626040805190810160405280600c81526020017f4245454c53204a696e6e696800000000000000000000000000000000000000008152506001620005ef640100000000026401000000009004565b620002b36040805190810160405280600a81526020017f4d454555575320546f6d000000000000000000000000000000000000000000008152506001620005ef640100000000026401000000009004565b620003046040805190810160405280600c81526020017f545552414e2047c3bc6c657200000000000000000000000000000000000000008152506001620005ef640100000000026401000000009004565b620003556040805190810160405280600d81526020017f44452057455645522042617274000000000000000000000000000000000000008152506002620005ef640100000000026401000000009004565b620003a66040805190810160405280601081526020017f44452052494444455220416e6e69636b000000000000000000000000000000008152506002620005ef640100000000026401000000009004565b620003f76040805190810160405280601181526020017f4149542044414f5544204e6162696c6c610000000000000000000000000000008152506002620005ef640100000000026401000000009004565b620004486040805190810160405280600c81526020017f50454554455253204b72697300000000000000000000000000000000000000008152506003620005ef640100000000026401000000009004565b620004996040805190810160405280601281526020017f424153544941454e53204361726f6c696e6500000000000000000000000000008152506003620005ef640100000000026401000000009004565b620004ea6040805190810160405280600d81526020017f4c414e4a5249204e6168696d61000000000000000000000000000000000000008152506003620005ef640100000000026401000000009004565b5062000803565b6009600081548092919060010191905055506060604051908101604052806009548152602001825181526020018281525060086000600954815260200190815260200160002060008201518160000155602082015181600101556040820151816002019080519060200190620005699291906200067f565b5090505050565b60076000815480929190600101919050555060606040519081016040528060075481526020018281526020016000815250600660006007548152602001908152602001600020600082015181600001556020820151816001019080519060200190620005de9291906200070e565b506040820151816002015590505050565b60056000815480929190600101919050555060806040519081016040528060055481526020018281526020018381526020016000815250600460006005548152602001908152602001600020600082015181600001556020820151816001015560408201518160020190805190602001906200066d9291906200070e565b50606082015181600301559050505050565b828054828255906000526020600020908101928215620006fb579160200282015b82811115620006fa5782518260006101000a81548173ffffffffffffffffffffffffffffffffffffffff021916908373ffffffffffffffffffffffffffffffffffffffff16021790555091602001919060010190620006a0565b5b5090506200070a919062000795565b5090565b828054600181600116156101000203166002900490600052602060002090601f016020900481019282601f106200075157805160ff191683800117855562000782565b8280016001018555821562000782579182015b828111156200078157825182559160200191906001019062000764565b5b509050620007919190620007db565b5090565b620007d891905b80821115620007d457600081816101000a81549073ffffffffffffffffffffffffffffffffffffffff0219169055506001016200079c565b5090565b90565b6200080091905b80821115620007fc576000816000905550600101620007e2565b5090565b90565b610e3580620008136000396000f3006080604052600436106100c5576000357c0100000000000000000000000000000000000000000000000000000000900463ffffffff168063217de6b2146100ca5780632638bf72146101215780632d35a8a2146101875780633477ee2e146101b25780635df3e2711461026d57806370651a18146102d65780637f8b6bb11461038a57806388703254146103e15780639eb8e7251461040c578063aec2ccae14610437578063b9e0db3514610492578063ecd557b9146104da578063f711300d14610554575b600080fd5b3480156100d657600080fd5b5061010b600480360381019080803573ffffffffffffffffffffffffffffffffffffffff1690602001909291905050506105b5565b6040518082815260200191505060405180910390f35b34801561012d57600080fd5b50610185600480360381019080803590602001908201803590602001908080602002602001604051908101604052809392919081815260200183836020028082843782019150505050505091929192905050506105cd565b005b34801561019357600080fd5b5061019c61064a565b6040518082815260200191505060405180910390f35b3480156101be57600080fd5b506101dd60048036038101908080359060200190929190505050610650565b6040518085815260200184815260200180602001838152602001828103825284818151815260200191508051906020019080838360005b8381101561022f578082015181840152602081019050610214565b50505050905090810190601f16801561025c5780820380516001836020036101000a031916815260200191505b509550505050505060405180910390f35b34801561027957600080fd5b506102d4600480360381019080803590602001908201803590602001908080601f0160208091040260200160405190810160405280939291908181526020018383808284378201915050505050509192919290505050610718565b005b3480156102e257600080fd5b5061030160048036038101908080359060200190929190505050610795565b6040518084815260200180602001838152602001828103825284818151815260200191508051906020019080838360005b8381101561034d578082015181840152602081019050610332565b50505050905090810190601f16801561037a5780820380516001836020036101000a031916815260200191505b5094505050505060405180910390f35b34801561039657600080fd5b506103cb600480360381019080803573ffffffffffffffffffffffffffffffffffffffff169060200190929190505050610857565b6040518082815260200191505060405180910390f35b3480156103ed57600080fd5b506103f661086f565b6040518082815260200191505060405180910390f35b34801561041857600080fd5b50610421610875565b6040518082815260200191505060405180910390f35b34801561044357600080fd5b50610478600480360381019080803573ffffffffffffffffffffffffffffffffffffffff16906020019092919050505061087b565b604051808215151515815260200191505060405180910390f35b34801561049e57600080fd5b506104bd6004803603810190808035906020019092919050505061089b565b604051808381526020018281526020019250505060405180910390f35b3480156104e657600080fd5b506105526004803603810190808035906020019092919080359060200190820180359060200190808060200260200160405190810160405280939291908181526020018383602002808284378201915050505050509192919290803590602001909291905050506108bf565b005b34801561056057600080fd5b5061059f600480360381019080803573ffffffffffffffffffffffffffffffffffffffff16906020019092919080359060200190929190505050610c67565b6040518082815260200191505060405180910390f35b60006020528060005260406000206000915090505481565b6009600081548092919060010191905055506060604051908101604052806009548152602001825181526020018281525060086000600954815260200190815260200160002060008201518160000155602082015181600101556040820151816002019080519060200190610643929190610c97565b5090505050565b60055481565b6004602052806000526040600020600091509050806000015490806001015490806002018054600181600116156101000203166002900480601f0160208091040260200160405190810160405280929190818152602001828054600181600116156101000203166002900480156107085780601f106106dd57610100808354040283529160200191610708565b820191906000526020600020905b8154815290600101906020018083116106eb57829003601f168201915b5050505050908060030154905084565b60076000815480929190600101919050555060606040519081016040528060075481526020018281526020016000815250600660006007548152602001908152602001600020600082015181600001556020820151816001019080519060200190610784929190610d21565b506040820151816002015590505050565b6006602052806000526040600020600091509050806000015490806001018054600181600116156101000203166002900480601f0160208091040260200160405190810160405280929190818152602001828054600181600116156101000203166002900480156108475780601f1061081c57610100808354040283529160200191610847565b820191906000526020600020905b81548152906001019060200180831161082a57829003601f168201915b5050505050908060020154905083565b60026020528060005260406000206000915090505481565b60095481565b60075481565b60036020528060005260406000206000915054906101000a900460ff1681565b60086020528060005260406000206000915090508060000154908060010154905082565b600080600080600360003373ffffffffffffffffffffffffffffffffffffffff1673ffffffffffffffffffffffffffffffffffffffff16815260200190815260200160002060009054906101000a900460ff1615151561091e57600080fd5b60009350600092505b60086000868152602001908152602001600020600101548310156109dc573373ffffffffffffffffffffffffffffffffffffffff16600860008781526020019081526020016000206002018481548110151561097f57fe5b9060005260206000200160009054906101000a900473ffffffffffffffffffffffffffffffffffffffff1673ffffffffffffffffffffffffffffffffffffffff1614156109cf57600193506109dc565b8280600101935050610927565b8315156109e857600080fd5b6001600360003373ffffffffffffffffffffffffffffffffffffffff1673ffffffffffffffffffffffffffffffffffffffff16815260200190815260200160002060006101000a81548160ff0219169083151502179055506006600088815260200190815260200160002060020160008154809291906001019190505550600091505b8551821015610bee578582815181101515610a8257fe5b906020019060200201519050600081118015610aa057506005548111155b8015610ac15750866004600083815260200190815260200160002060010154145b1515610acc57600080fd5b6004600082815260200190815260200160002060030160008154809291906001019190505550600160003373ffffffffffffffffffffffffffffffffffffffff1673ffffffffffffffffffffffffffffffffffffffff1681526020019081526020016000208190806001815401808255809150509060018203906000526020600020016000909192909190915055506001600260003373ffffffffffffffffffffffffffffffffffffffff1673ffffffffffffffffffffffffffffffffffffffff1681526020019081526020016000205401600260003373ffffffffffffffffffffffffffffffffffffffff1673ffffffffffffffffffffffffffffffffffffffff168152602001908152602001600020819055508180600101925050610a6b565b866000803373ffffffffffffffffffffffffffffffffffffffff1673ffffffffffffffffffffffffffffffffffffffff16815260200190815260200160002081905550867ffff3c900d938d21d0990d786e819f29b8d05c1ef587b462b939609625b684b1660405160405180910390a250505050505050565b600160205281600052604060002081815481101515610c8257fe5b90600052602060002001600091509150505481565b828054828255906000526020600020908101928215610d10579160200282015b82811115610d0f5782518260006101000a81548173ffffffffffffffffffffffffffffffffffffffff021916908373ffffffffffffffffffffffffffffffffffffffff16021790555091602001919060010190610cb7565b5b509050610d1d9190610da1565b5090565b828054600181600116156101000203166002900490600052602060002090601f016020900481019282601f10610d6257805160ff1916838001178555610d90565b82800160010185558215610d90579182015b82811115610d8f578251825591602001919060010190610d74565b5b509050610d9d9190610de4565b5090565b610de191905b80821115610ddd57600081816101000a81549073ffffffffffffffffffffffffffffffffffffffff021916905550600101610da7565b5090565b90565b610e0691905b80821115610e02576000816000905550600101610dea565b5090565b905600a165627a7a723058204fcaaf78017f6dc7f10410ffaee9ff17d43312018a44537459ecf78a72020d0b0029",
  "source": "pragma solidity ^0.4.24;\r\n\r\ncontract Election {\r\n    struct Location {\r\n      uint id;\r\n      uint validAddressAmount;\r\n      address[] validAddresses;\r\n    }\r\n\r\n    struct Party {\r\n      uint id;\r\n      string name;\r\n      uint voteCount;\r\n    }\r\n\r\n    // Model a Candidate\r\n    struct Candidate {\r\n        uint id;\r\n        uint partyId;\r\n        string name;\r\n        uint voteCount;\r\n    }\r\n\r\n    // Store accounts that have voted\r\n    mapping(address => uint) public votersParty;\r\n    mapping(address => uint[]) public votersCandidates;\r\n    mapping(address => uint) public votersCandidatesCount;\r\n    mapping(address => bool) public voted;\r\n    // Store Candidates\r\n    // Fetch Candidate\r\n    mapping(uint => Candidate) public candidates;\r\n    // Store Candidates Count\r\n    uint public candidatesCount;\r\n\r\n    mapping (uint => Party) public parties;\r\n    uint public partyCount;\r\n\r\n    mapping (uint => Location) public locations;\r\n    uint public locationCount;\r\n\r\n    // voted event\r\n    event votedEvent (\r\n        uint indexed _candidateId\r\n    );\r\n\r\n    constructor() {\r\n        address[] memory a = new address[](2);\r\n        a[0] = 0x0260C4873d8C3d9ABe737450516D266dA391e2f5;\r\n        a[1] = 0xa00e6969C7B59122B76c0fFcb8C87A1809FEfF3F;\r\n        addLocation(a);\r\n        addParty(\"SP.A\");\r\n        addParty(\"N-VA\");\r\n        addParty(\"CD&V\");\r\n        addCandidate(\"BEELS Jinnih\",1);\r\n        addCandidate(\"MEEUWS Tom\",1);\r\n        addCandidate(\"TURAN Güler\",1);\r\n        addCandidate(\"DE WEVER Bart\",2);\r\n        addCandidate(\"DE RIDDER Annick\",2);\r\n        addCandidate(\"AIT DAOUD Nabilla\",2);\r\n        addCandidate(\"PEETERS Kris\",3);\r\n        addCandidate(\"BASTIAENS Caroline\",3);\r\n        addCandidate(\"LANJRI Nahima\",3);\r\n    }\r\n\r\n    function addCandidate (string _name, uint _partyId) private {\r\n        candidatesCount ++;\r\n        candidates[candidatesCount] = Candidate(candidatesCount, _partyId, _name, 0);\r\n    }\r\n\r\n    function addParty(string _name) {\r\n        partyCount++;\r\n        parties[partyCount] = Party(partyCount, _name, 0);\r\n    }\r\n\r\n    function addLocation(address[] _validAddresses) {\r\n        locationCount++;\r\n        locations[locationCount] = Location(locationCount, _validAddresses.length, _validAddresses);\r\n    }\r\n\r\n    function vote (uint _partyId, uint[] _candidateIds, uint _locationId) public {\r\n        // require that they haven't voted before\r\n        require(!voted[msg.sender]);\r\n\r\n        bool found = false;\r\n        for (uint j=0; j<locations[_locationId].validAddressAmount; j++) {\r\n          if (locations[_locationId].validAddresses[j] == msg.sender) {\r\n            found = true;\r\n            break;\r\n          }\r\n        }\r\n\r\n        require(found);\r\n\r\n        // record that voter has voted\r\n        voted[msg.sender] = true;\r\n\r\n        parties[_partyId].voteCount++;\r\n\r\n        // update candidate vote Count\r\n        for (uint i=0; i<_candidateIds.length; i++) {\r\n          uint id = _candidateIds[i];\r\n          require(id > 0 && id <= candidatesCount && candidates[id].partyId == _partyId);\r\n          candidates[id].voteCount ++;\r\n          votersCandidates[msg.sender].push(id);\r\n          votersCandidatesCount[msg.sender] = votersCandidatesCount[msg.sender] + 1;\r\n        }\r\n\r\n        votersParty[msg.sender] = _partyId;\r\n\r\n        // trigger voted event\r\n        emit votedEvent(_partyId);\r\n    }\r\n}\r\n",
  "sourcePath": "D:\\Teun\\Desktop\\schooljaar 2018-2019\\iot\\election\\contracts\\Election.sol",
  "compiler": {
    "name": "solc",
    "version": "0.4.24+commit.e67f0147.Emscripten.clang"
  },
  "schemaVersion": "2.0.1",
  "updatedAt": "2018-10-12T07:16:11.485Z"
}